:100000000C942A000C9475300C9447000C94470013
:100010000C9447000C9447000C94E2150C94470094
:100020000C9447000C9447000C94062C0C94470049
:100030000C94672A0C94972C0C94D22C0C94052DBC
:100040000C9447000C9447000C9447000C94470014
:100050000C94470011241FBECFE5D8E0DEBFCDBF12
:1000600011E0A0E6B0E0E4E9F8E602C005900D92E8
:10007000A03AB107D9F711E0A0EAB1E001C01D92A2
:10008000AA3DB107E1F70E94BC300C9448340C94AF
:100090000000EF92FF920F931F937B018C0120E0F1
:1000A00030E040E05FE40E94F50388238CF0C80153
:1000B000B70120E030E040E05FE40E94C1010E940F
:1000C000B3049B01AC01205030404040504806C072
:1000D000C801B7010E94B3049B01AC01B901CA0178
:1000E0001F910F91FF90EF900895A0E0B0E0EBE733
:1000F000F0E00C941134DC012B01FA019C91923058
:1001000008F439C1EB018881823008F433C194309E
:1001100069F4843009F02FC111969C91119789815F
:10012000981709F428C1A8E9B0E025C1843009F482
:1001300021C18230A9F4923009F01DC19A01AD01AC
:1001400088E0EA010990AE01E90109929E0181501F
:10015000C1F7E201898111969C918923818308C1AD
:10016000923009F407C112962D903C901397EB0141
:100170008A819B811496AD90BD90CD90DC901797AD
:10018000EC80FD800E811F819101281B390BB90184
:1001900037FF04C066277727621B730B6032710537
:1001A0000CF061C0121613066CF537014801062EDB
:1001B00004C096948794779467940A94D2F721E0C8
:1001C00030E040E050E004C0220F331F441F551FB1
:1001D0006A95D2F721503040404050402E213F21B7
:1001E00040235123211531054105510521F021E01E
:1001F00030E040E050E079018A01E628F72808293C
:1002000019293CC0232BD1F1260E371E350146019A
:10021000062E04C096948794779467940A94D2F734
:1002200021E030E040E050E004C0220F331F441FC3
:10023000551F6A95D2F721503040404050402A2146
:100240003B214C215D21211531054105510521F04E
:1002500021E030E040E050E059016A01A628B728CB
:10026000C828D9280BC0821593052CF01C01AA249C
:10027000BB24650103C0EE24FF24870111969C91E5
:10028000D20111968C91981709F445C0992339F041
:10029000A80197012A193B094C095D0906C0A6016E
:1002A00095012E193F09400B510B57FD08C01182D3
:1002B0003382228224833583468357831DC081E0A5
:1002C00081833382228288279927DC01821B930B4A
:1002D000A40BB50B84839583A683B7830DC0220F2F
:1002E000331F441F551F24833583468357838281E0
:1002F000938101979383828324813581468157813D
:10030000DA01C9010197A109B1098F5F9F4FAF4F72
:10031000BF4328F30BC0918333822282EA0CFB1C7B
:100320000C1D1D1DE482F5820683178383E0808304
:10033000248135814681578157FF1AC0C901AA27F8
:1003400097FDA095BA2F81709070A070B0705695EF
:10035000479537952795822B932BA42BB52B848318
:100360009583A683B7838281938101969383828349
:10037000DF0101C0D201CD01CDB7DEB7E2E10C94BF
:100380002D34A0E2B0E0E7ECF1E00C941D34698379
:100390007A838B839C832D833E834F835887E9E048
:1003A000EE2EF12CEC0EFD1ECE010196B7010E943F
:1003B000A4068E010F5E1F4FCE010596B8010E9464
:1003C000A4068A8991E089278A8BC701B801AE010A
:1003D000475E5F4F0E9475000E94CF05A096E6E041
:1003E0000C943934A0E2B0E0E8EFF1E00C941D3455
:1003F00069837A838B839C832D833E834F835887C5
:10040000F9E0EF2EF12CEC0EFD1ECE010196B701A6
:100410000E94A4068E010F5E1F4FCE010596B80103
:100420000E94A406C701B801AE01475E5F4F0E945B
:1004300075000E94CF05A096E6E00C943934A0E246
:10044000B0E0E5E2F2E00C94113469837A838B83A7
:100450009C832D833E834F835887CE010196BE0136
:10046000675F7F4F0E94A406CE010596BE016F5EB6
:100470007F4F0E94A4069985923088F08989823046
:10048000C8F0943019F4823051F404C0843029F457
:10049000923081F488E990E0C6C0923049F420E0BF
:1004A0009A858A89981321E02A87CE010996BBC0D4
:1004B000823049F420E09A858A89981321E02A8BBA
:1004C000CE014196B0C02D843E844F8458886D88FB
:1004D0007E888F88988CEE24FF248701AA24BB2471
:1004E000650140E050E060E070E0E0E0F0E0C10174
:1004F00081709070892BE9F0E60CF71C081D191D1E
:100500009A01AB012A0D3B1D4C1D5D1D80E090E062
:10051000A0E0B0E0E614F7040805190520F481E036
:1005200090E0A0E0B0E0BA01A901480F591F6A1F8E
:100530007B1FAA0CBB1CCC1CDD1C97FE08C081E0F5
:1005400090E0A0E0B0E0A82AB92ACA2ADB2A3196B6
:10055000E032F10549F0660C771C881C991C569412
:10056000479437942794C3CFFA85EA892B893C892D
:100570008B859C85280F391F2E5F3F4F17C0CA01FE
:1005800081709070892B61F016950795F794E79428
:1005900080E090E0A0E0B0E8E82AF92A0A2B1B2BC3
:1005A00076956795579547952F5F3F4F77FDE7CF36
:1005B0000CC0440F551F661F771F17FD4160EE0CDE
:1005C000FF1C001F111F21503040403090E05907A0
:1005D00090E0690790E4790760F32B8F3C8FDB0193
:1005E000CA018F779070A070B07080349105A1051A
:1005F000B10561F447FD0AC0E114F10401051105DC
:1006000029F0405C5F4F6F4F7F4F40781A8EFE1786
:1006100011F081E08A8F4D8F5E8F6F8F78A383E01A
:10062000898FCE0149960E94CF05A096E2E10C94F5
:100630002D34A8E1B0E0EFE1F3E00C9419346983C4
:100640007A838B839C832D833E834F835887B9E0C5
:10065000EB2EF12CEC0EFD1ECE010196B7010E948F
:10066000A4068E010F5E1F4FCE010596B8010E94B1
:10067000A4062985223008F47EC03989323010F46E
:10068000B8017CC08A859A8989278A87243011F02D
:10069000223031F4231709F06EC068E970E06EC0B3
:1006A000343039F41D861E861F86188A1C861B86E8
:1006B00004C0323021F484E08987B7015FC02B8504
:1006C0003C858B899C89281B390B3C872B87ED84C3
:1006D000FE840F851889AD88BE88CF88D88CEA142F
:1006E000FB040C051D0540F4EE0CFF1C001F111F40
:1006F000215030403C872B8720E030E040E050E044
:1007000080E090E0A0E0B0E460E070E0EA14FB0478
:100710000C051D0540F0282B392B4A2B5B2BEA18C2
:10072000FB080C091D09B695A79597958795EE0CC2
:10073000FF1C001F111F6F5F7F4F6F31710531F775
:10074000DA01C9018F779070A070B0708034910584
:10075000A105B10561F427FD0AC0E114F10401050A
:10076000110529F0205C3F4F4F4F5F4F20782D87B8
:100770003E874F87588BBE01675F7F4FCB010E943A
:10078000CF056896EAE00C943534A8E1B0E0EBECD4
:10079000F3E00C941D3469837A838B839C832D83CF
:1007A0003E834F83588789E0E82EF12CEC0EFD1E26
:1007B000CE010196B7010E94A4068E010F5E1F4F65
:1007C000CE010596B8010E94A4068985823040F0CA
:1007D0008989823028F0C701B8010E941C0701C036
:1007E0008FEF6896E6E00C943934A8E1B0E0EBEFC7
:1007F000F3E00C941D3469837A838B839C832D836F
:100800003E834F83588789E0E82EF12CEC0EFD1EC5
:10081000CE010196B7010E94A4068E010F5E1F4F04
:10082000CE010596B8010E94A4068985823040F069
:100830008989823028F0C701B8010E941C0701C0D5
:100840008FEF6896E6E00C943934A8E1B0E0EBE273
:10085000F4E00C941D3469837A838B839C832D830D
:100860003E834F83588789E0E82EF12CEC0EFD1E65
:10087000CE010196B7010E94A4068E010F5E1F4FA4
:10088000CE010596B8010E94A4068985823040F009
:100890008989823028F0C701B8010E941C0701C075
:1008A00081E06896E6E00C943934A8E0B0E0EBE52E
:1008B000F4E00C941A349B01AC0183E08983DA01E3
:1008C000C9018827B7FD83959927AA27BB27B82E8A
:1008D000211531054105510519F482E089833AC09B
:1008E0008823A9F0203080E0380780E0480780E8BE
:1008F000580729F460E070E080E09FEC30C0EE24FF
:10090000FF248701E21AF30A040B150B02C07901D8
:100910008A018EE1C82ED12CDC82CB82ED82FE8250
:100920000F831887C801B7010E9480050197181628
:10093000190684F4082E04C0EE0CFF1C001F111FC2
:100940000A94D2F7ED82FE820F831887C81AD90A5B
:10095000DC82CB82BA82CE0101960E94CF05289616
:10096000E9E00C943634ACE0B0E0E9EBF4E00C9450
:10097000213469837A838B839C83CE010196BE01E7
:100980006B5F7F4F0E94A4068D81823061F18230BF
:1009900050F1843021F48E81882351F12EC02F81B3
:1009A000388537FD20C06E812F3131051CF066235C
:1009B000F9F023C08EE190E0821B930B29853A85E4
:1009C0004B855C8504C056954795379527958A9544
:1009D000D2F76623B1F050954095309521953F4F61
:1009E0004F4F5F4F0EC020E030E040E050E009C0C4
:1009F0002FEF3FEF4FEF5FE704C020E030E040E033
:100A000050E8B901CA012C96E2E00C943D34A8E00C
:100A1000B0E0EDE0F5E00C9419347B018C01611538
:100A200071058105910519F482E0898360C083E036
:100A300089838EE1C82ED12CDC82CB82ED82FE82AE
:100A40000F831887C801B7010E948005FC01319708
:100A5000F7FF3BC0222733272E1B3F0B57016801AE
:100A6000022E04C0D694C794B794A7940A94D2F7E0
:100A700040E050E060E070E081E090E0A0E0B0E0B5
:100A800004C0880F991FAA1FBB1F2A95D2F7019790
:100A9000A109B1098E219F21A023B1230097A105AF
:100AA000B10521F041E050E060E070E04A295B29A7
:100AB0006C297D294D835E836F8378878EE190E07A
:100AC0008E1B9F0B9C838B8312C0309781F00E2E60
:100AD00004C0EE0CFF1C001F111F0A94D2F7ED8218
:100AE000FE820F831887CE1ADF0ADC82CB821A823D
:100AF000CE0101960E94CF052896EAE00C94353489
:100B0000EF92FF920F931F937B018C0180E0E81618
:100B100080E0F80681E0080780E0180788F48FEF8E
:100B2000E816F1040105110531F028F088E090E0A5
:100B3000A0E0B0E017C080E090E0A0E0B0E012C01C
:100B400080E0E81680E0F80680E0080781E01807FA
:100B500028F088E190E0A0E0B0E004C080E190E0FF
:100B6000A0E0B0E020E230E040E050E0281B390B8C
:100B70004A0B5B0B04C016950795F794E7948A958A
:100B8000D2F7F701E056FF4F8081281B3109410958
:100B90005109C9011F910F91FF90EF900895DF92C5
:100BA000EF92FF920F931F93FC01E480F580068182
:100BB0001781D1808081823048F480E090E0A0E10C
:100BC000B0E0E82AF92A0A2B1B2BA5C0843009F4CF
:100BD0009FC0823021F4EE24FF24870105C0E11478
:100BE000F1040105110519F4E0E0F0E096C062811E
:100BF00073819FEF623879070CF05BC022E83FEF0A
:100C0000261B370B2A3131052CF020E030E040E084
:100C100050E02AC0B801A701022E04C0769567955E
:100C2000579547950A94D2F781E090E0A0E0B0E0B4
:100C300004C0880F991FAA1FBB1F2A95D2F70197DE
:100C4000A109B1098E219F21A023B1230097A105FD
:100C5000B10521F081E090E0A0E0B0E09A01AB01A5
:100C6000282B392B4A2B5B2BDA01C9018F77907027
:100C7000A070B07080349105A105B10539F427FF4B
:100C800009C0205C3F4F4F4F5F4F04C0215C3F4F76
:100C90004F4F5F4FE0E0F0E02030A0E03A07A0E0E7
:100CA0004A07A0E45A0710F0E1E0F0E079018A0178
:100CB00027C06038710564F5FB01E158FF4FD8018A
:100CC000C7018F779070A070B07080349105A10536
:100CD000B10539F4E7FE0DC080E490E0A0E0B0E09B
:100CE00004C08FE390E0A0E0B0E0E80EF91E0A1F18
:100CF0001B1F17FF05C016950795F794E7943196CB
:100D000087E016950795F794E7948A95D1F705C083
:100D1000EE24FF248701EFEFF0E06E2F6795662742
:100D20006795902F9F77D794DD24D7948E2F869543
:100D3000492F462B582F5D29B701CA011F910F91EA
:100D4000FF90EF90DF900895FC01DB01408151811D
:100D50002281622F6F7770E0221F2227221F93814A
:100D6000892F880F822B282F30E0991F9927991FF0
:100D700011969C93119721153105A9F5411551053F
:100D80006105710511F482E037C082E89FEF139688
:100D90009C938E9312979A01AB0167E0220F331F49
:100DA000441F551F6A95D1F783E08C930DC0220F25
:100DB000331F441F551F12968D919C9113970197D5
:100DC00013969C938E931297203080E0380780E032
:100DD000480780E4580758F314962D933D934D939C
:100DE0005C93179708952F3F310579F4411551050C
:100DF0006105710519F484E08C93089564FF03C0C4
:100E000081E08C9312C01C9210C02F573040139673
:100E10003C932E93129783E08C9387E0440F551FE9
:100E2000661F771F8A95D1F7706414964D935D9372
:100E30006D937C93179708951F93DC01FB019C91A0
:100E4000923008F447C08081823008F443C0943067
:100E500051F411961C91843099F58181682F70E0CE
:100E6000611B71093FC0843021F0923031F482302F
:100E7000B9F18181882389F12DC011961C911197B8
:100E80008230F1F081811817D9F412962D913C919E
:100E90001397828193818217930794F0281739075B
:100EA000BCF014968D919D910D90BC91A02D248144
:100EB000358146815781281739074A075B0718F49F
:100EC000112341F00AC082179307A407B50740F425
:100ED000112319F061E070E005C06FEF7FEF02C0F1
:100EE00060E070E0CB011F910895DF93CF93CDB701
:100EF000DEB7A7E2B0E0E7E2F0E080818F738C9389
:100F0000A7E2B0E0E7E2F0E0808180648C93A6E2A3
:100F1000B0E0E6E2F0E080818F7D8C93A7E2B0E064
:100F2000E7E2F0E080818F7D8C93A6E2B0E0E6E21C
:100F3000F0E0808180618C93A6E2B0E0E6E2F0E030
:100F4000808180688C93CF91DF910895DF93CF9358
:100F50000F92CDB7DEB78983A7E2B0E0E7E2F0E019
:100F60008081807E8C93A7E2B0E0E7E2F0E09081A0
:100F70008981892B8C93A6E2B0E0E6E2F0E08081E3
:100F800080648C930F90CF91DF910895DF93CF937E
:100F9000CDB7DEB7E6E2F0E0808182958695869552
:100FA0008370882F90E081709070882399F7E4E235
:100FB000F0E080819181CF91DF910895DF93CF930D
:100FC000CDB7DEB7A6E2B0E0E6E2F0E0808188606F
:100FD0008C93CF91DF910895DF93CF93CDB7DEB798
:100FE000A6E2B0E0E6E2F0E08081877F8C93CF91CB
:100FF000DF910895DF93CF9300D0CDB7DEB79A830A
:10100000898389819A819093A1018093A0010F9097
:101010000F90CF91DF910895DF93CF9300D000D050
:10102000CDB7DEB789836A838981843090F5898161
:10103000282F30E03C832B838B819C81813091056C
:10104000D1F02B813C81223031052CF48B819C81A5
:10105000009761F01EC02B813C812230310581F068
:101060008B819C818330910581F013C0EAE3F0E02D
:101070008A8180830EC0E7E3F0E08A81808309C023
:10108000E4E3F0E08A81808304C0E1E3F0E08A8158
:1010900080830F900F900F900F90CF91DF91089564
:1010A000DF93CF9300D000D0CDB7DEB789836A83BA
:1010B0008981843090F58981282F30E03C832B830F
:1010C0008B819C8181309105D1F02B813C81223034
:1010D00031052CF48B819C81009761F01EC02B811F
:1010E0003C812230310581F08B819C8183309105D8
:1010F00081F013C0EBE3F0E08A8180830EC0E8E367
:10110000F0E08A81808309C0E5E3F0E08A81808392
:1011100004C0E2E3F0E08A8180830F900F900F908B
:101120000F90CF91DF910895DF93CF93CDB7DEB7C6
:1011300027970FB6F894DEBF0FBECDBF89836A83B1
:101140004B838A81883008F0EAC08B81813009F0B6
:101150006FC08981282F30E03F832E838E819F814D
:101160008130910549F12E813F81223031052CF4E7
:101170008E819F81009761F0D2C02E813F81223005
:10118000310571F18E819F8183309105E9F1C7C0EE
:10119000AAE3B0E0EAE3F0E08081482F8A81282FBB
:1011A00030E081E090E0022E02C0880F991F0A947F
:1011B000E2F7842B8C93B3C0A7E3B0E0E7E3F0E061
:1011C0008081482F8A81282F30E081E090E0022E34
:1011D00002C0880F991F0A94E2F7842B8C939FC05A
:1011E000A4E3B0E0E4E3F0E08081482F8A81282F77
:1011F00030E081E090E0022E02C0880F991F0A942F
:10120000E2F7842B8C938BC0A1E3B0E0E1E3F0E044
:101210008081482F8A81282F30E081E090E0022EE3
:1012200002C0880F991F0A94E2F7842B8C9377C031
:101230008B81882309F073C08981282F30E03D839A
:101240002C838C819D818130910559F12C813D81C8
:10125000223031052CF48C819D81009769F05FC0AC
:101260002C813D812230310589F18C819D81833033
:10127000910509F440C053C0AAE3B0E0EAE3F0E00E
:101280008081482F8A81282F30E081E090E0022E73
:1012900002C0880F991F0A94E2F7809584238C93EB
:1012A0003EC0A7E3B0E0E7E3F0E08081482F8A8109
:1012B000282F30E081E090E0022E02C0880F991FB5
:1012C0000A94E2F7809584238C9329C0A4E3B0E0CC
:1012D000E4E3F0E08081482F8A81282F30E081E02C
:1012E00090E0022E02C0880F991F0A94E2F78095C1
:1012F00084238C9314C0A1E3B0E0E1E3F0E08081AB
:10130000482F8A81282F30E081E090E0022E02C031
:10131000880F991F0A94E2F7809584238C9327966F
:101320000FB6F894DEBF0FBECDBFCF91DF91089509
:10133000DF93CF93CDB7DEB727970FB6F894DEBF14
:101340000FBECDBF89836A834B838A81883008F0C2
:10135000EAC08B81813009F06FC08981282F30E08D
:101360003F832E838E819F818130910549F12E81AB
:101370003F81223031052CF48E819F81009761F0EE
:10138000D2C02E813F812230310571F18E819F8143
:1013900083309105E9F1C7C0ABE3B0E0EBE3F0E0E7
:1013A0008081482F8A81282F30E081E090E0022E52
:1013B00002C0880F991F0A94E2F7842B8C93B3C064
:1013C000A8E3B0E0E8E3F0E08081482F8A81282F8D
:1013D00030E081E090E0022E02C0880F991F0A944D
:1013E000E2F7842B8C939FC0A5E3B0E0E5E3F0E047
:1013F0008081482F8A81282F30E081E090E0022E02
:1014000002C0880F991F0A94E2F7842B8C938BC03B
:10141000A2E3B0E0E2E3F0E08081482F8A81282F48
:1014200030E081E090E0022E02C0880F991F0A94FC
:10143000E2F7842B8C9377C08B81882309F073C0EB
:101440008981282F30E03D832C838C819D818130E0
:10145000910559F12C813D81223031052CF48C818C
:101460009D81009769F05FC02C813D81223031055C
:1014700089F18C819D818330910509F440C053C06E
:10148000ABE3B0E0EBE3F0E08081482F8A81282FC6
:1014900030E081E090E0022E02C0880F991F0A948C
:1014A000E2F7809584238C933EC0A8E3B0E0E8E3A4
:1014B000F0E08081482F8A81282F30E081E090E0A1
:1014C000022E02C0880F991F0A94E2F780958423A8
:1014D0008C9329C0A5E3B0E0E5E3F0E08081482FDC
:1014E0008A81282F30E081E090E0022E02C0880F30
:1014F000991F0A94E2F7809584238C9314C0A2E389
:10150000B0E0E2E3F0E08081482F8A81282F30E0CC
:1015100081E090E0022E02C0880F991F0A94E2F742
:10152000809584238C9327960FB6F894DEBF0FBE68
:10153000CDBFCF91DF910895DF93CF9300D000D03E
:101540000F92CDB7DEB78A836B838B81883008F02A
:1015500067C08A81282F30E03D832C834C815D81D8
:101560004130510541F18C819D818230910534F4E7
:101570002C813D812115310561F052C04C815D8186
:101580004230510551F18C819D8183309105B9F133
:1015900047C0E9E3F0E08081282F30E08B81882F7D
:1015A00090E0A90102C0559547958A95E2F7CA01D6
:1015B0008170898335C0E6E3F0E08081282F30E038
:1015C0008B81882F90E0A90102C0559547958A9597
:1015D000E2F7CA018170898323C0E3E3F0E08081F0
:1015E000282F30E08B81882F90E0A90102C055950B
:1015F00047958A95E2F7CA018170898311C0E0E3BB
:10160000F0E08081282F30E08B81882F90E0A901C5
:1016100002C0559547958A95E2F7CA018170898382
:1016200089810F900F900F900F900F90CF91DF91C5
:101630000895DF93CF9300D000D0CDB7DEB7898374
:101640006A838A81883008F06EC08981282F30E053
:101650003C832B838B819C818130910549F12B81C7
:101660003C81223031052CF48B819C81009761F004
:101670005AC02B813C812230310571F18B819C81D4
:1016800083309105E9F14FC0ABE3B0E0EBE3F0E06C
:101690008081482F8A81282F30E081E090E0022E5F
:1016A00002C0880F991F0A94E2F784278C933BC0ED
:1016B000A8E3B0E0E8E3F0E08081482F8A81282F9A
:1016C00030E081E090E0022E02C0880F991F0A945A
:1016D000E2F784278C9327C0A5E3B0E0E5E3F0E0D0
:1016E0008081482F8A81282F30E081E090E0022E0F
:1016F00002C0880F991F0A94E2F784278C9313C0C5
:10170000A2E3B0E0E2E3F0E08081482F8A81282F55
:1017100030E081E090E0022E02C0880F991F0A9409
:10172000E2F784278C930F900F900F900F90CF913A
:10173000DF910895DF93CF93CDB7DEB7AAE5B0E090
:10174000EAE5F0E0808181608C93AAE5B0E0EAE50B
:10175000F0E080818D7F8C93ABE5B0E0EBE5F0E0CD
:10176000808180648C93CF91DF910895DF93CF9334
:10177000CDB7DEB7AAE5B0E0EAE5F0E080818E7F84
:101780008C93AAE5B0E0EAE5F0E080818D7F8C9350
:10179000ABE5B0E0EBE5F0E0808180688C93CF9121
:1017A000DF910895DF93CF93CDB7DEB7ABE5B0E01F
:1017B000EBE5F0E0808180628C93CF91DF9108951A
:1017C000DF93CF93CDB7DEB7ABE5B0E0EBE5F0E06C
:1017D00080818F7B8C93CF91DF910895DF93CF939E
:1017E000CDB7DEB7ABE5B0E0EBE5F0E080818F7719
:1017F0008C93CF91DF910895DF93CF93CDB7DEB770
:10180000ABE5B0E0EBE5F0E080818F7D8C93CF918C
:10181000DF910895DF93CF93CDB7DEB72A970FB648
:10182000F894DEBF0FBECDBF89836A838981282FDC
:1018300030E03A87298789859A858230910509F4B5
:1018400085C029853A852330310509F4F8C089859A
:101850009A858130910509F01FC18A81282F30E0D7
:1018600038872F838F8198858230910569F12F8188
:1018700038852330310534F48F8198858130910586
:1018800069F00AC12F8138852330310599F18F81A4
:1018900098858430910509F443C0FEC0AAE5B0E004
:1018A000EAE5F0E080818E7F8C93AAE5B0E0EAE57E
:1018B000F0E080818D7F8C93ABE5B0E0EBE5F0E06C
:1018C000808180648C93E8C0AAE5B0E0EAE5F0E0AE
:1018D000808181608C93AAE5B0E0EAE5F0E0808148
:1018E0008D7F8C93ABE5B0E0EBE5F0E08081806428
:1018F0008C93D2C0AAE5B0E0EAE5F0E080818E7F6B
:101900008C93AAE5B0E0EAE5F0E0808182608C93F8
:10191000ABE5B0E0EBE5F0E0808180648C93BCC087
:10192000AAE5B0E0EAE5F0E0808181608C93AAE569
:10193000B0E0EAE5F0E0808182608C93ABE5B0E056
:10194000EBE5F0E0808180648C93A6C08A81282F2B
:1019500030E03E832D838D819E818230910569F137
:101960002D813E812330310534F48D819E8181307B
:10197000910569F091C02D813E812330310599F1A7
:101980008D819E818430910509F443C085C0AAE50C
:10199000B0E0EAE5F0E080818E7F8C93AAE5B0E0CC
:1019A000EAE5F0E080818D7F8C93ABE5B0E0EBE57C
:1019B000F0E0808180688C936FC0AAE5B0E0EAE532
:1019C000F0E0808181608C93AAE5B0E0EAE5F0E088
:1019D00080818D7F8C93ABE5B0E0EBE5F0E080811A
:1019E00080688C9359C0AAE5B0E0EAE5F0E0808118
:1019F0008E7F8C93AAE5B0E0EAE5F0E0808182601A
:101A00008C93ABE5B0E0EBE5F0E0808180688C93EF
:101A100043C0AAE5B0E0EAE5F0E0808181608C9304
:101A2000AAE5B0E0EAE5F0E0808182608C93ABE566
:101A3000B0E0EBE5F0E0808180688C932DC08A8176
:101A4000282F30E03C832B838B819C818330910550
:101A500031F02B813C812430310581F01DC0A4E59B
:101A6000B0E0E4E5F0E080818F7B8C93ABE5B0E003
:101A7000EBE5F0E0808180628C930EC0A4E5B0E0DD
:101A8000E4E5F0E0808180648C93ABE5B0E0EBE5C9
:101A9000F0E0808180628C932A960FB6F894DEBFC6
:101AA0000FBECDBFCF91DF910895DF93CF9300D0CC
:101AB0000F92CDB7DEB789838981282F30E03B8331
:101AC0002A838A819B818230910591F02A813B8112
:101AD00023303105A9F08A819B8181309105B9F4C9
:101AE000ABE5B0E0EBE5F0E080818F7B8C930FC03D
:101AF000ABE5B0E0EBE5F0E080818F778C9307C039
:101B0000ABE5B0E0EBE5F0E080818F7D8C930F904A
:101B10000F900F90CF91DF910895DF93CF93CDB7C2
:101B2000DEB765970FB6F894DEBF0FBECDBF8983D1
:101B30006A834B838981282F30E03D8B2C8B8C89E5
:101B40009D898230910509F4CFC12C893D892330CC
:101B5000310534F48C899D898130910571F068C21A
:101B60002C893D892330310509F419C18C899D895F
:101B70008430910509F48AC05BC28A81282F30E045
:101B80003B8B2A8B8A899B898130910531F02A8988
:101B90003B892230310581F01DC0A3E5B0E0E3E5CB
:101BA000F0E08081877F8C93A3E5B0E0E3E5F0E08F
:101BB00080818F7B8C930EC0A3E5B0E0E3E5F0E07D
:101BC0008081877F8C93A3E5B0E0E3E5F0E080813E
:101BD00080648C938B81282F30E0398B288B888907
:101BE00099898230910529F1288939892330310575
:101BF00034F4888999898130910561F019C2288966
:101C000039892330310521F18889998984309105FA
:101C100071F10EC2A3E5B0E0E3E5F0E080818F7ED4
:101C20008C93A3E5B0E0E3E5F0E080818F7D8C93B9
:101C3000FFC1A3E5B0E0E3E5F0E0808180618C9333
:101C4000A3E5B0E0E3E5F0E080818F7D8C93F0C107
:101C5000A3E5B0E0E3E5F0E080818F7E8C93A3E51F
:101C6000B0E0E3E5F0E0808180628C93E1C1A3E520
:101C7000B0E0E3E5F0E0808180618C93A3E5B0E023
:101C8000E3E5F0E0808180628C93D2C18981282FC6
:101C900030E03F872E878E859F858130910531F01A
:101CA0002E853F852230310581F01DC0A5E4B0E0CE
:101CB000E5E4F0E08081877F8C93A5E4B0E0E5E483
:101CC000F0E080818F7B8C930EC0A5E4B0E0E5E46A
:101CD000F0E08081877F8C93A5E4B0E0E5E4F0E05C
:101CE000808180648C938A81282F30E03D872C8707
:101CF0008C859D858230910529F12C853D85233089
:101D0000310534F48C859D858130910561F090C159
:101D10002C853D852330310521F18C859D858430CE
:101D2000910571F185C1A5E4B0E0E5E4F0E08081C2
:101D30008F7E8C93A5E4B0E0E5E4F0E080818F7DB8
:101D40008C9376C1A5E4B0E0E5E4F0E080818061A9
:101D50008C93A5E4B0E0E5E4F0E080818F7D8C9386
:101D600067C1A5E4B0E0E5E4F0E080818F7E8C936C
:101D7000A5E4B0E0E5E4F0E0808180628C9358C196
:101D8000A5E4B0E0E5E4F0E0808180618C93A5E417
:101D9000B0E0E5E4F0E0808180628C9349C18A8103
:101DA000282F30E03B872A878A859B8581309105E3
:101DB00031F02A853B8522303105F1F039C0AFE49E
:101DC000B0E0EFE4F0E080818E7F8C93AFE4B0E090
:101DD000EFE4F0E080818D7F8C93AEE4B0E0EEE440
:101DE000F0E08081877F8C93AEE4B0E0EEE4F0E039
:101DF00080818F7E8C931CC0AFE4B0E0EFE4F0E014
:101E000080818E7F8C93AFE4B0E0EFE4F0E08081DE
:101E10008D7F8C93AEE4B0E0EEE4F0E080818860EA
:101E20008C93AEE4B0E0EEE4F0E080818F7E8C93A2
:101E30008B81282F30E039872887888599858230E3
:101E4000910529F1288539852330310534F48885B9
:101E500099858130910561F0EBC028853985233063
:101E6000310521F1888599858430910571F1E0C0B3
:101E7000AFE4B0E0EFE4F0E080818F7E8C93AFE4DC
:101E8000B0E0EFE4F0E080818F7D8C93D1C0AFE4CF
:101E9000B0E0EFE4F0E0808180618C93AFE4B0E0EB
:101EA000EFE4F0E080818F7D8C93C2C0AFE4B0E0BE
:101EB000EFE4F0E080818F7E8C93AFE4B0E0EFE45C
:101EC000F0E0808180628C93B3C0AFE4B0E0EFE4D7
:101ED000F0E0808180618C93AFE4B0E0EFE4F0E06B
:101EE000808180628C93A4C08A81282F30E03F8358
:101EF0002E838E819F818130910531F02E813F812B
:101F000022303105F1F039C0AFE4B0E0EFE4F0E0A9
:101F100080818E7F8C93AFE4B0E0EFE4F0E08081CD
:101F20008D7F8C93AEE4B0E0EEE4F0E08081877FBB
:101F30008C93AEE4B0E0EEE4F0E080818F7E8C9391
:101F40001CC0AFE4B0E0EFE4F0E080818E7F8C93C2
:101F5000AFE4B0E0EFE4F0E080818D7F8C93AEE4FD
:101F6000B0E0EEE4F0E0808188608C93AEE4B0E015
:101F7000EEE4F0E080818F7E8C938B81282F30E01F
:101F80003D832C838C819D818230910529F12C81A8
:101F90003D812330310534F48C819D818130910560
:101FA00061F046C02C813D812330310521F18C81C7
:101FB0009D818430910571F13BC0AFE4B0E0EFE466
:101FC000F0E080818F7B8C93AFE4B0E0EFE4F0E051
:101FD00080818F778C932CC0AFE4B0E0EFE4F0E029
:101FE000808180648C93AFE4B0E0EFE4F0E0808126
:101FF0008F778C931DC0AFE4B0E0EFE4F0E0808118
:102000008F7B8C93AFE4B0E0EFE4F0E080818068F8
:102010008C930EC0AFE4B0E0EFE4F0E08081806428
:102020008C93AFE4B0E0EFE4F0E0808180688C93C3
:1020300065960FB6F894DEBF0FBECDBFCF91DF918E
:102040000895DF93CF93CDB7DEB72A970FB6F894F4
:10205000DEBF0FBECDBF89836A838981282F30E020
:102060003A87298789859A858430910564F4298582
:102070003A85223031050CF0A9C189859A858130D5
:10208000910541F070C229853A852430310509F463
:10209000CFC069C28A81282F30E038872F838F8193
:1020A00098858630910509F46BC02F8138852730DB
:1020B00031058CF48F81988582309105A9F12F81AB
:1020C00038852330310509F445C08F8198858130EA
:1020D0009105A1F048C22F8138852830310509F4D7
:1020E0007BC08F819885883091050CF45FC02F816B
:1020F00038852930310509F485C035C2A3E5B0E043
:10210000E3E5F0E0808181608C93A3E5B0E0E3E556
:10211000F0E080818D7F8C93A3E5B0E0E3E5F0E013
:1021200080818B7F8C931FC2A3E5B0E0E3E5F0E0F4
:1021300080818E7F8C93A3E5B0E0E3E5F0E08081C1
:1021400082608C93A3E5B0E0E3E5F0E080818B7FD3
:102150008C9309C2A3E5B0E0E3E5F0E08081816003
:102160008C93A3E5B0E0E3E5F0E0808182608C939E
:10217000A3E5B0E0E3E5F0E080818B7F8C93F3C1D1
:10218000A3E5B0E0E3E5F0E080818E7F8C93A3E5EA
:10219000B0E0E3E5F0E080818D7F8C93A3E5B0E0D3
:1021A000E3E5F0E0808184608C93DDC1A3E5B0E0DD
:1021B000E3E5F0E0808181608C93A3E5B0E0E3E5A6
:1021C000F0E080818D7F8C93A3E5B0E0E3E5F0E063
:1021D000808184608C93C7C1A3E5B0E0E3E5F0E0C3
:1021E00080818E7F8C93A3E5B0E0E3E5F0E0808111
:1021F00082608C93A3E5B0E0E3E5F0E08081846049
:102200008C93B1C1A3E5B0E0E3E5F0E080818160AB
:102210008C93A3E5B0E0E3E5F0E0808182608C93ED
:10222000A3E5B0E0E3E5F0E0808184608C939BC19E
:102230008A81282F30E03E832D838D819E818430DA
:10224000910509F455C02D813E81253031058CF46E
:102250008D819E8182309105A9F12D813E812330AF
:1022600031050CF05BC08D819E8181309105A1F01C
:102270007AC12D813E812630310509F47BC08D81E4
:102280009E81863091050CF45FC02D813E81273000
:10229000310509F485C067C1A5E4B0E0E5E4F0E0EC
:1022A000808181608C93A5E4B0E0E5E4F0E080817A
:1022B0008D7F8C93A5E4B0E0E5E4F0E080818B7F36
:1022C0008C9351C1A5E4B0E0E5E4F0E080818E7F1D
:1022D0008C93A5E4B0E0E5E4F0E0808182608C932B
:1022E000A5E4B0E0E5E4F0E080818B7F8C933BC116
:1022F000A5E4B0E0E5E4F0E0808181608C93A5E4A2
:10230000B0E0E5E4F0E0808182608C93A5E4B0E089
:10231000E5E4F0E080818B7F8C9325C1A5E4B0E0FB
:10232000E5E4F0E080818E7F8C93A5E4B0E0E5E405
:10233000F0E080818D7F8C93A5E4B0E0E5E4F0E0EF
:10234000808184608C930FC1A5E4B0E0E5E4F0E007
:10235000808181608C93A5E4B0E0E5E4F0E08081C9
:102360008D7F8C93A5E4B0E0E5E4F0E080818460AB
:102370008C93F9C0A5E4B0E0E5E4F0E080818E7FC5
:102380008C93A5E4B0E0E5E4F0E0808182608C937A
:10239000A5E4B0E0E5E4F0E0808184608C93E3C0E4
:1023A000A5E4B0E0E5E4F0E0808181608C93A5E4F1
:1023B000B0E0E5E4F0E0808182608C93A5E4B0E0D9
:1023C000E5E4F0E0808184608C93CDC08A81282F81
:1023D00030E03C832B838B819C818630910509F40E
:1023E0006BC02B813C81273031058CF48B819C8123
:1023F00082309105A9F12B813C812330310509F40C
:1024000045C08B819C8181309105A1F0ACC02B81AE
:102410003C812830310509F47BC08B819C81883058
:1024200091050CF45FC02B813C812930310509F402
:1024300085C099C0AEE4B0E0EEE4F0E08081816058
:102440008C93AEE4B0E0EEE4F0E080818D7F8C937D
:10245000AEE4B0E0EEE4F0E080818B7F8C9383C04B
:10246000AEE4B0E0EEE4F0E080818E7F8C93AEE4E9
:10247000B0E0EEE4F0E0808182608C93AEE4B0E006
:10248000EEE4F0E080818B7F8C936DC0AEE4B0E031
:10249000EEE4F0E0808181608C93AEE4B0E0EEE4A5
:1024A000F0E0808182608C93AEE4B0E0EEE4F0E096
:1024B00080818B7F8C9357C0AEE4B0E0EEE4F0E017
:1024C00080818E7F8C93AEE4B0E0EEE4F0E080811A
:1024D0008D7F8C93AEE4B0E0EEE4F0E08081846028
:1024E0008C9341C0AEE4B0E0EEE4F0E08081816026
:1024F0008C93AEE4B0E0EEE4F0E080818D7F8C93CD
:10250000AEE4B0E0EEE4F0E0808184608C932BC018
:10251000AEE4B0E0EEE4F0E080818E7F8C93AEE438
:10252000B0E0EEE4F0E0808182608C93AEE4B0E055
:10253000EEE4F0E0808184608C9315C0AEE4B0E0FE
:10254000EEE4F0E0808181608C93AEE4B0E0EEE4F4
:10255000F0E0808182608C93AEE4B0E0EEE4F0E0E5
:10256000808184608C932A960FB6F894DEBF0FBEEC
:10257000CDBFCF91DF910895DF93CF9300D000D0EE
:102580000F92CDB7DEB789837B836A838981282F39
:1025900030E03D832C838C819D81843091055CF4F7
:1025A0002C813D8122303105B4F48C819D818130B4
:1025B000910539F016C02C813D812430310531F070
:1025C00010C0E2E5F0E08A8180830BC0E4E4F0E033
:1025D0008A81808306C0ECE4F0E08A819B8191834C
:1025E00080830F900F900F900F900F90CF91DF91FD
:1025F0000895DF93CF9300D000D00F92CDB7DEB710
:1026000089837B836A838981282F30E03D832C83F3
:102610008C819D8182309105D9F02C813D812330C0
:10262000310534F48C819D818130910561F022C0A7
:102630002C813D812330310591F08C819D81843046
:102640009105A1F017C0ECE5F0E08A81808312C00B
:10265000EAE4F0E08A819B81918380830BC0E8E407
:10266000F0E08A819B819183808304C0E3E4F0E001
:102670008A8180830F900F900F900F900F90CF91D1
:10268000DF910895DF93CF93CDB7DEB7AEE4B0E02E
:10269000EEE4F0E0808180648C93A9E5B0E0E9E5A8
:1026A000F0E0808180628C93CF91DF910895DF9379
:1026B000CF930F92CDB7DEB789838981813041F402
:1026C000AEE4B0E0EEE4F0E0808180648C930AC078
:1026D0008981823039F4AEE4B0E0EEE4F0E080814C
:1026E0008F7B8C930F90CF91DF910895DF93CF93E1
:1026F000CDB7DEB7A9E5B0E0E9E5F0E08081806222
:102700008C93CF91DF910895DF93CF93CDB7DEB750
:10271000A9E5B0E0E9E5F0E080818F7D8C93CF9171
:10272000DF910895DF93CF93CDB7DEB7E6E4F0E015
:1027300080819181CF91DF910895DF93CF9300D075
:10274000CDB7DEB79A83898389819A81009731F06A
:1027500089819A819093A3018093A2010F900F9099
:10276000CF91DF910895DF93CF9300D00F92CDB733
:10277000DEB789838981282F30E03B832A838A81D1
:102780009B818430910509F442C02A813B81253028
:10279000310584F48A819B818230910541F12A813F
:1027A0003B81233031055CF58A819B818130910525
:1027B000B1F054C02A813B8126303105C1F18A81B4
:1027C0009B81863091055CF12A813B812730310560
:1027D000B1F18A819B8188309105C9F13FC0A9E59B
:1027E000B0E0E9E5F0E0808182608C9337C0A9E534
:1027F000B0E0E9E5F0E0808181608C932FC0A9E52D
:10280000B0E0E9E5F0E0808180618C9327C0A9E524
:10281000B0E0E9E5F0E0808188608C931FC0A9E515
:10282000B0E0E9E5F0E0808184608C9317C0A9E511
:10283000B0E0E9E5F0E0808180628C930FC0A9E50B
:10284000B0E0E9E5F0E0808180688C9307C0A9E5FD
:10285000B0E0E9E5F0E0808180648C930F900F9008
:102860000F90CF91DF910895DF93CF9300D00F9217
:10287000CDB7DEB789838981282F30E03B832A8357
:102880008A819B818430910509F442C02A813B8171
:102890002530310584F48A819B818230910541F194
:1028A0002A813B81233031055CF58A819B8181300F
:1028B0009105B1F054C02A813B8126303105C1F128
:1028C0008A819B81863091055CF12A813B8127308A
:1028D0003105B1F18A819B8188309105C9F13FC0F2
:1028E000A9E5B0E0E9E5F0E080818D7F8C9337C009
:1028F000A9E5B0E0E9E5F0E080818E7F8C932FC000
:10290000A9E5B0E0E9E5F0E080818F7E8C9327C0F7
:10291000A9E5B0E0E9E5F0E08081877F8C931FC0F6
:10292000A9E5B0E0E9E5F0E080818B7F8C9317C0EA
:10293000A9E5B0E0E9E5F0E080818F7D8C930FC0E0
:10294000A9E5B0E0E9E5F0E080818F778C9307C0DE
:10295000A9E5B0E0E9E5F0E080818F7B8C930F90F2
:102960000F900F90CF91DF9108950F931F93DF93F6
:10297000CF9300D0CDB7DEB79A83898389819A81BE
:1029800020E28C36920708F087C0AFE4B0E0EFE4B5
:10299000F0E080818E7F8C93AFE4B0E0EFE4F0E074
:1029A00080818D7F8C93AEE4B0E0EEE4F0E0808136
:1029B000877F8C93AEE4B0E0EEE4F0E080818F7E20
:1029C0008C93AFE4B0E0EFE4F0E080818E7F8C93F5
:1029D000AFE4B0E0EFE4F0E080818D7F8C93AEE473
:1029E000B0E0EEE4F0E0808188608C93AEE4B0E08B
:1029F000EEE4F0E080818F7E8C930AE410E0898120
:102A00009A81CC01A0E0B0E0BC01CD010E94070595
:102A1000DC01CB01BC01CD0120E030E04AEF50E405
:102A20000E941F02DC01CB01BC01CD010E944900C4
:102A3000DC01CB01F80191838083ECE4F0E01182AA
:102A40001082AEE4B0E0EEE4F0E0808181608C932F
:102A5000AEE4B0E0EEE4F0E080818D7F8C93AEE4F4
:102A6000B0E0EEE4F0E0808184608C93ECE4F0E090
:102A700011821082E8E5F0E0808182958F70882FC6
:102A800090E0817090700097A9F3A8E5B0E0E8E5C8
:102A9000F0E0808180618C930F900F90CF91DF9157
:102AA0001F910F9108950F931F93DF93CF9300D041
:102AB000CDB7DEB79A83898389819A8120E28C36EB
:102AC000920708F078C0AFE4B0E0EFE4F0E0808176
:102AD0008E7F8C93AFE4B0E0EFE4F0E080818D7FF7
:102AE0008C93AEE4B0E0EEE4F0E08081877F8C93DD
:102AF000AEE4B0E0EEE4F0E080818F7E8C93AFE452
:102B0000B0E0EFE4F0E080818E7F8C93AFE4B0E042
:102B1000EFE4F0E080818D7F8C93AEE4B0E0EEE4F2
:102B2000F0E0808188608C93AEE4B0E0EEE4F0E009
:102B300080818F7E8C930AE410E089819A81CC0198
:102B4000A0E0B0E0BC01CD010E940705DC01CB0193
:102B5000BC01CD0120E030E04AEF50E40E941F02AA
:102B6000DC01CB01BC01CD010E944900DC01CB019D
:102B7000F80191838083AEE4B0E0EEE4F0E0808180
:102B800081608C93AEE4B0E0EEE4F0E080818D7F74
:102B90008C93AEE4B0E0EEE4F0E0808184608C934E
:102BA000ECE4F0E011821082A9E5B0E0E9E5F0E0A4
:102BB000808180618C930F900F90CF91DF911F9156
:102BC0000F9108951F920F920FB60F9211242F9319
:102BD0003F934F935F936F937F938F939F93AF93A5
:102BE000BF93EF93FF93DF93CF93CDB7DEB7809181
:102BF000A2019091A301009729F0E091A201F09128
:102C0000A3010995CF91DF91FF91EF91BF91AF9112
:102C10009F918F917F916F915F914F913F912F91F4
:102C20000F900FBE0F901F901895DF93CF93CDB7E5
:102C3000DEB7AFE5B0E0EFE5F0E0808180688C932F
:102C4000CF91DF910895DF93CF93CDB7DEB7AFE596
:102C5000B0E0EFE5F0E080818F778C93CF91DF914A
:102C600008950F931F93DF93CF93CDB7DEB72797C8
:102C70000FB6F894DEBF0FBECDBF6A837B838C8313
:102C80009D835F834E831092C4018A819B81AC81B6
:102C9000BD810097A105B10509F453C019824DC04B
:102CA0008A819B81AC81BD812AE030E040E050E028
:102CB000BC01CD010E94D433DC01CB010097A105FA
:102CC000B10549F48A819B81AC81BD818A3091052F
:102CD000A105B105B0F18981282F30E08E819F8157
:102CE0008C01020F131F8A819B81AC81BD812AE078
:102CF00030E040E050E0BC01CD010E94D433DC0163
:102D0000CB01F80180838A819B81AC81BD812AE05F
:102D100030E040E050E0BC01CD010E94D433DA0144
:102D2000C9018A839B83AC83BD838091C4018F5F7B
:102D30008093C40189818F5F89838981803208F4FF
:102D4000AFCF27960FB6F894DEBF0FBECDBFCF91A1
:102D5000DF911F910F910895DF93CF930F92CDB71D
:102D6000DEB78983898182958F70982F917081E079
:102D700060E0492F0E949809898182958695877025
:102D8000982F917081E061E0492F0E949809898114
:102D90008295869586958370982F917081E062E088
:102DA000492F0E9498098981982F991F9927991F67
:102DB00081E064E0492F0E9498090F90CF91DF9144
:102DC0000895DF93CF93CDB7DEB7AC970FB6F894E5
:102DD000DEBF0FBECDBF8CA78CA58BA78BA50E9495
:102DE000AC1680E063E040E00E94980980E062E079
:102DF00041E00E94980980E090E0A0E8BFE38FA343
:102E000098A7A9A7BAA76FA178A589A59AA520E038
:102E100030E04AE755E40E941F02DC01CB018BA39E
:102E20009CA3ADA3BEA36BA17CA18DA19EA120E01C
:102E300030E040E85FE30E94250488232CF481E021
:102E400090E09AA389A33FC06BA17CA18DA19EA114
:102E500020E03FEF4FE757E40E94C50318164CF5FA
:102E60006FA178A589A59AA520E030E040E251E461
:102E70000E941F02DC01CB01BC01CD010E94490070
:102E8000DC01CB019AA389A30FC080E991E098A34C
:102E90008F8F8F8D98A10197F1F798A38F8F89A1BC
:102EA0009AA101979AA389A389A19AA1009769F78A
:102EB00014C06BA17CA18DA19EA10E944900DC01E0
:102EC000CB019AA389A389A19AA19E8F8D8F8D8D05
:102ED0009E8D0197F1F79E8F8D8F80E062E040E03C
:102EE0000E9498098CA58295807F8BA78BA50E9454
:102EF000AC1680E062E041E00E94980980E090E03A
:102F0000A0E8BFE3898F9A8FAB8FBC8F698D7A8DD4
:102F10008B8D9C8D20E030E04AE755E40E941F0233
:102F2000DC01CB018D8B9E8BAF8BB88F6D897E8939
:102F30008F89988D20E030E040E85FE30E9425040F
:102F400088232CF481E090E09C8B8B8B3FC06D89B3
:102F50007E898F89988D20E03FEF4FE757E40E94EC
:102F6000C50318164CF5698D7A8D8B8D9C8D20E0EC
:102F700030E040E251E40E941F02DC01CB01BC01C1
:102F8000CD010E944900DC01CB019C8B8B8B0FC0D3
:102F900080E991E09A8B898B89899A890197F1F769
:102FA0009A8B898B8B899C8901979C8B8B8B8B89C6
:102FB0009C89009769F714C06D897E898F89988DE7
:102FC0000E944900DC01CB019C8B8B8B8B899C89F7
:102FD000988B8F878F8598890197F1F7988B8F87CA
:102FE00080E062E040E00E94980980E090E0A0E08C
:102FF000B0E48B879C87AD87BE876B857C858D858C
:103000009E8520E030E04AE755E40E941F02DC0183
:10301000CB018F839887A987BA876F817885898547
:103020009A8520E030E040E85FE30E942504882391
:103030002CF481E090E09E838D833FC06F81788582
:1030400089859A8520E03FEF4FE757E40E94C5034A
:1030500018164CF56B857C858D859E8520E030E0CB
:1030600040E251E40E941F02DC01CB01BC01CD0112
:103070000E944900DC01CB019E838D830FC080E953
:1030800091E09C838B838B819C810197F1F79C83DA
:103090008B838D819E8101979E838D838D819E81FF
:1030A000009769F714C06F81788589859A850E9499
:1030B0004900DC01CB019E838D838D819E819A83A3
:1030C000898389819A810197F1F79A838983AC96E4
:1030D0000FB6F894DEBF0FBECDBFCF91DF9108953C
:1030E0000F931F93DF93CF93CDB7DEB7C455D04076
:1030F0000FB6F894DEBF0FBECDBFFE01EF5AFF4FF3
:1031000080E090E0A0E2B2E480839183A283B38365
:103110008E01035B1F4FFE01EF5AFF4F60817181EB
:103120008281938120E030E04AE755E40E941F024B
:10313000DC01CB01F80180839183A283B383FE017C
:10314000E35BFF4F608171818281938120E030E0F9
:1031500040E85FE30E942504882344F4FE01E55B18
:10316000FF4F81E090E09183808364C0FE01E35BC8
:10317000FF4F608171818281938120E03FEF4FE7B3
:1031800057E40E94C50318160CF043C0FE01EF5A25
:10319000FF4F608171818281938120E030E040E2C5
:1031A00051E40E941F02DC01CB018E01055B1F4F21
:1031B000BC01CD010E944900DC01CB01F8019183E3
:1031C00080831FC0FE01E75BFF4F80E991E09183A0
:1031D0008083FE01E75BFF4F808191810197F1F7CA
:1031E000FE01E75BFF4F91838083DE01A55BBF4F4C
:1031F000FE01E55BFF4F80819181019711969C93C1
:103200008E93FE01E55BFF4F808191810097D1F69F
:1032100027C08E01055B1F4FFE01E35BFF4F6081FE
:103220007181828193810E944900DC01CB01F80108
:1032300091838083DE01A95BBF4FFE01E55BFF4FF9
:10324000808191818D939C93FE01E95BFF4F80818A
:1032500091810197F1F7FE01E95BFF4F9183808334
:1032600080E063E041E00E94940880E062E041E099
:103270000E94940881E060E041E00E94940881E0AF
:1032800061E041E00E94940881E062E041E00E9438
:10329000940881E064E041E00E94940882E00E948A
:1032A000E116FE01ED5BFF4F80E090E0A0E7B1E4A6
:1032B00080839183A283B3838E01015C1F4FFE0143
:1032C000ED5BFF4F608171818281938120E030E06E
:1032D0004AE755E40E941F02DC01CB01F80180831C
:1032E0009183A283B383FE01FF9660817181828105
:1032F000938120E030E040E85FE30E9425048823CA
:103300002CF481E090E09EAF8DAF46C0FE01FF96A9
:10331000608171818281938120E03FEF4FE757E424
:103320000E94C503181664F5FE01ED5BFF4F608136
:1033300071818281938120E030E040E251E40E947B
:103340001F02DC01CB01BC01CD010E944900DC0160
:10335000CB019EAF8DAF0FC080E991E09CAF8BAFEA
:103360008BAD9CAD0197F1F79CAF8BAF8DAD9EAD52
:1033700001979EAF8DAF8DAD9EAD009769F716C0DA
:10338000FE01FF9660817181828193810E944900D4
:10339000DC01CB019EAF8DAF8DAD9EAD9AAF89AFF5
:1033A00089AD9AAD0197F1F79AAF89AF88E20E9493
:1033B000E11680E090E0A0E0B0E48DAB9EABAFAB57
:1033C000B8AF6DA97EA98FA998AD20E030E04AE79B
:1033D00055E40E941F02DC01CB0189AB9AABABAB79
:1033E000BCAB69A97AA98BA99CA920E030E040E890
:1033F0005FE30E94250488232CF481E090E098ABE1
:103400008FA73FC069A97AA98BA99CA920E03FEFAB
:103410004FE757E40E94C50318164CF56DA97EA925
:103420008FA998AD20E030E040E251E40E941F02F5
:10343000DC01CB01BC01CD010E944900DC01CB01C4
:1034400098AB8FA70FC080E991E09EA78DA78DA5AF
:103450009EA50197F1F79EA78DA78FA598A9019723
:1034600098AB8FA78FA598A9009769F714C069A991
:103470007AA98BA99CA90E944900DC01CB0198ABD9
:103480008FA78FA598A99CA78BA78BA59CA5019713
:10349000F1F79CA78BA78CE00E94E11680E090E0FA
:1034A000A0E0B0E48FA398A7A9A7BAA76FA178A5B9
:1034B00089A59AA520E030E04AE755E40E941F0262
:1034C000DC01CB018BA39CA3ADA3BEA36BA17CA10C
:1034D0008DA19EA120E030E040E85FE30E9425043A
:1034E00088232CF481E090E09AA389A33FC06BA1CC
:1034F0007CA18DA19EA120E03FEF4FE757E40E9401
:10350000C50318164CF56FA178A589A59AA520E0EA
:1035100030E040E251E40E941F02DC01CB01BC011B
:10352000CD010E944900DC01CB019AA389A30FC001
:1035300080E991E098A38F8F8F8D98A10197F1F783
:1035400098A38F8F89A19AA101979AA389A389A192
:103550009AA1009769F714C06BA17CA18DA19EA1CF
:103560000E944900DC01CB019AA389A389A19AA1F9
:103570009E8F8D8F8D8D9E8D0197F1F79E8F8D8FF4
:1035800081E00E94E11680E090E0A0E7B1E4898F3D
:103590009A8FAB8FBC8F698D7A8D8B8D9C8D20E03F
:1035A00030E04AE755E40E941F02DC01CB018D8B1D
:1035B0009E8BAF8BB88F6D897E898F89988D20E027
:1035C00030E040E85FE30E94250488232CF481E08A
:1035D00090E09C8B8B8B3FC06D897E898F89988D05
:1035E00020E03FEF4FE757E40E94C50318164CF563
:1035F000698D7A8D8B8D9C8D20E030E040E251E426
:103600000E941F02DC01CB01BC01CD010E944900D8
:10361000DC01CB019C8B8B8B0FC080E991E09A8BF6
:10362000898B89899A890197F1F79A8B898B8B8984
:103630009C8901979C8B8B8B8B899C89009769F760
:1036400014C06D897E898F89988D0E944900DC01A4
:10365000CB019C8B8B8B8B899C89988B8F878F85DB
:1036600098890197F1F7988B8F8786E00E94E11681
:1036700080E090E0A0E0B0E48B879C87AD87BE87B8
:103680006B857C858D859E8520E030E04AE755E49A
:103690000E941F02DC01CB018F839887A987BA871C
:1036A0006F81788589859A8520E030E040E85FE386
:1036B0000E94250488232CF481E090E09E838D8372
:1036C0003FC06F81788589859A8520E03FEF4FE77D
:1036D00057E40E94C50318164CF56B857C858D85D3
:1036E0009E8520E030E040E251E40E941F02DC01B0
:1036F000CB01BC01CD010E944900DC01CB019E83BE
:103700008D830FC080E991E09C838B838B819C81AA
:103710000197F1F79C838B838D819E8101979E8316
:103720008D838D819E81009769F714C06F817885A4
:1037300089859A850E944900DC01CB019E838D8397
:103740008D819E819A83898389819A810197F1F77E
:103750009A838983CC5ADF4F0FB6F894DEBF0FBE31
:10376000CDBFCF91DF911F910F910895DF93CF933C
:1037700000D000D0CDB7DEB789836A838981282F36
:1037800030E03C832B838B819C8181309105D1F08B
:103790002B813C81223031052CF48B819C81009758
:1037A00061F01EC02B813C812230310581F08B817C
:1037B0009C818330910581F013C08A8180580E94DA
:1037C000E1160EC08A8180540E94E11609C08A81E8
:1037D0008C560E94E11604C08A818C520E94E11628
:1037E0000F900F900F900F90CF91DF910895DF937E
:1037F000CF93CDB7DEB7AC970FB6F894DEBF0FBE50
:10380000CDBF8CA78CA58BA78BA50E94AC1680E0A2
:1038100063E041E00E94980980E062E041E00E949C
:10382000980980E090E0A0E0B0E48FA398A7A9A752
:10383000BAA76FA178A589A59AA520E030E04AE74C
:1038400055E40E941F02DC01CB018BA39CA3ADA316
:10385000BEA36BA17CA18DA19EA120E030E040E839
:103860005FE30E94250488232CF481E090E09AA372
:1038700089A33FC06BA17CA18DA19EA120E03FEF59
:103880004FE757E40E94C50318164CF56FA178A5C1
:1038900089A59AA520E030E040E251E40E941F0291
:1038A000DC01CB01BC01CD010E944900DC01CB0150
:1038B0009AA389A30FC080E991E098A38F8F8F8D81
:1038C00098A10197F1F798A38F8F89A19AA10197E9
:1038D0009AA389A389A19AA1009769F714C06BA143
:1038E0007CA18DA19EA10E944900DC01CB019AA37D
:1038F00089A389A19AA19E8F8D8F8D8D9E8D019711
:10390000F1F79E8F8D8F80E062E040E00E94980981
:103910008CA58295807F8BA78BA50E94AC1680E03A
:1039200062E041E00E94980980E090E0A0E0B0E40D
:10393000898F9A8FAB8FBC8F698D7A8D8B8D9C8D83
:1039400020E030E04AE755E40E941F02DC01CB0191
:103950008D8B9E8BAF8BB88F6D897E898F89988D6B
:1039600020E030E040E85FE30E94250488232CF447
:1039700081E090E09C8B8B8B3FC06D897E898F8925
:10398000988D20E03FEF4FE757E40E94C5031816DB
:103990004CF5698D7A8D8B8D9C8D20E030E040E276
:1039A00051E40E941F02DC01CB01BC01CD010E9449
:1039B0004900DC01CB019C8B8B8B0FC080E991E02F
:1039C0009A8B898B89899A890197F1F79A8B898BD0
:1039D0008B899C8901979C8B8B8B8B899C89009709
:1039E00069F714C06D897E898F89988D0E9449007E
:1039F000DC01CB019C8B8B8B8B899C89988B8F876F
:103A00008F8598890197F1F7988B8F8780E062E026
:103A100040E00E94980980E090E0A0E0B0E48B874D
:103A20009C87AD87BE876B857C858D859E8520E0D4
:103A300030E04AE755E40E941F02DC01CB018F838E
:103A40009887A987BA876F81788589859A8520E0CC
:103A500030E040E85FE30E94250488232CF481E0F5
:103A600090E09E838D833FC06F81788589859A859C
:103A700020E03FEF4FE757E40E94C50318164CF5CE
:103A80006B857C858D859E8520E030E040E251E4A9
:103A90000E941F02DC01CB01BC01CD010E94490044
:103AA000DC01CB019E838D830FC080E991E09C8374
:103AB0008B838B819C810197F1F79C838B838D8114
:103AC0009E8101979E838D838D819E81009769F7EA
:103AD00014C06F81788589859A850E944900DC0130
:103AE000CB019E838D838D819E819A838983898179
:103AF0009A810197F1F79A838983AC960FB6F8946F
:103B0000DEBF0FBECDBFCF91DF910895DF93CF937E
:103B1000CDB7DEB781E00E94E116CF91DF91089525
:103B20000F931F93DF93CF93CDB7DEB7CF57D0401E
:103B30000FB6F894DEBF0FBECDBFFE01E458FF4FB5
:103B400091838083FE01E258FF4F6083FE01E158BC
:103B5000FF4F4083FE01E258FF4F8081882F90E0A5
:103B60009C01220F331F220F331FC901880F991F99
:103B7000880F991F820F931F982FDE01A558BF4F02
:103B8000FE01E158FF4F8081890F8C93DE01A75819
:103B9000BF4FFE01E458FF4F808191818D939C932C
:103BA000FE01E258FF4FDE01A158BF4F80816C91AA
:103BB0000E94B61BFE01EB58FF4F80E090E0A0E2B0
:103BC000B2E480839183A283B3838E010F581F4F89
:103BD000FE01EB58FF4F60817181828193812BEA56
:103BE0003AEA4AEA50E40E941F02DC01CB01F801E4
:103BF00080839183A283B383FE01EF58FF4F6081DE
:103C000071818281938120E030E040E85FE30E948F
:103C10002504882334F4FE01E059FF4F81E08083BE
:103C2000E0C0FE01EF58FF4F608171818281938176
:103C300020E030E04FE753E40E94C50318160CF073
:103C4000C0C0FE01EB58FF4F60817181828193817A
:103C500020E030E04AE754E40E941903DC01CB0184
:103C6000FE01E459FF4F80839183A283B3838E01C9
:103C700008591F4FFE01E459FF4F60817181828115
:103C8000938120E030E04AE755E40E941F02DC0106
:103C9000CB01F80180839183A283B383FE01E859AD
:103CA000FF4F608171818281938120E030E040E8A4
:103CB0005FE30E942504882344F4FE01EA59FF4F84
:103CC00081E090E09183808364C0FE01E859FF4F5A
:103CD000608171818281938120E03FEF4FE757E45B
:103CE0000E94C50318160CF043C0FE01E459FF4FB3
:103CF000608171818281938120E030E040E251E473
:103D00000E941F02DC01CB018E010A591F4FBC012A
:103D1000CD010E944900DC01CB01F8019183808331
:103D20001FC0FE01EC59FF4F80E991E09183808331
:103D3000FE01EC59FF4F808191810197F1F7FE015F
:103D4000EC59FF4F91838083DE01AA59BF4FFE01DA
:103D5000EA59FF4F80819181019711969C938E9330
:103D6000FE01EA59FF4F808191810097D1F616C478
:103D70008E010A591F4FFE01E859FF4F6081718182
:103D8000828193810E944900DC01CB01F80191837B
:103D90008083DE01AE59BF4FFE01EA59FF4F80819B
:103DA000918111969C938E93FE01EE59FF4F808175
:103DB00091810197F1F7FE01EE59FF4F91838083C6
:103DC000EDC38E0100591F4FFE01EF58FF4F608178
:103DD0007181828193810E944900DC01CB01F8014D
:103DE0008083DE01AF59BF4FFE01E059FF4F808154
:103DF0008C93FE01EF59FF4F80818A95F1F7FE0108
:103E0000EF59FF4F8083CAC3FE01E758FF4F01906F
:103E1000F081E02D80810E94F71BDE01A758BF4F83
:103E2000FE01E758FF4F8081918101968D939C930D
:103E3000DE01A558BF4FFE01E558FF4F80818F5F1F
:103E40008C93FE01E558FF4F8081843109F02DC12C
:103E500080EC0E94E116FE01E35AFF4F80E090E003
:103E6000A0E2B2E480839183A283B3838E01075AD8
:103E70001F4FFE01E35AFF4F608171818281938160
:103E80002BEA3AEA4AEA50E40E941F02DC01CB0125
:103E9000F80180839183A283B383FE01E75AFF4F29
:103EA000608171818281938120E030E040E85FE3AE
:103EB0000E942504882334F4FE01E85AFF4F81E074
:103EC0008083E0C0FE01E75AFF4F608171818281EB
:103ED000938120E030E04FE753E40E94C5031816B9
:103EE0000CF0C0C0FE01E35AFF4F608171818281F6
:103EF000938120E030E04AE754E40E941903DC019A
:103F0000CB01FE01EC5AFF4F80839183A283B383E0
:103F10008E01005B1F4FFE01EC5AFF4F60817181E3
:103F20008281938120E030E04AE755E40E941F023D
:103F3000DC01CB01F80180839183A283B383FE016E
:103F4000E05BFF4F608171818281938120E030E0EE
:103F500040E85FE30E942504882344F4FE01E25B0D
:103F6000FF4F81E090E09183808364C0FE01E05BBD
:103F7000FF4F608171818281938120E03FEF4FE7A5
:103F800057E40E94C50318160CF043C0FE01EC5A1A
:103F9000FF4F608171818281938120E030E040E2B7
:103FA00051E40E941F02DC01CB018E01025B1F4F16
:103FB000BC01CD010E944900DC01CB01F8019183D5
:103FC00080831FC0FE01E45BFF4F80E991E0918395
:103FD0008083FE01E45BFF4F808191810197F1F7BF
:103FE000FE01E45BFF4F91838083DE01A25BBF4F44
:103FF000FE01E25BFF4F80819181019711969C93B6
:104000008E93FE01E25BFF4F808191810097D1F694
:10401000C5C28E01025B1F4FFE01E05BFF4F608156
:104020007181828193810E944900DC01CB01F801FA
:1040300091838083DE01A65BBF4FFE01E25BFF4FF1
:104040008081918111969C938E93FE01E65BFF4FD8
:10405000808191810197F1F7FE01E65BFF4F91832B
:1040600080839CC28E01085A1F4FFE01E75AFF4F02
:1040700060817181828193810E944900DC01CB01C2
:10408000F8018083DE01A75BBF4FFE01E85AFF4FB6
:1040900080818C93FE01E75BFF4F80818A95F1F769
:1040A000FE01E75BFF4F808379C2FE01E558FF4FB9
:1040B0008081883209F0E1C084E90E94E116FE01A6
:1040C000EB5BFF4F80E090E0A0E2B2E4808391835D
:1040D000A283B3838E010F5B1F4FFE01EB5BFF4F8B
:1040E00060817181828193812BEA3AEA4AEA50E445
:1040F0000E941F02DC01CB01F80180839183A2831F
:10410000B383FE01EF5BFF4F6081718182819381F8
:1041100020E030E040E85FE30E942504882334F487
:1041200081E0FE01E05CFF4F80839DC0FE01EF5BFC
:10413000FF4F608171818281938120E030E04FE701
:1041400053E40E94C50318160CF07EC0FE01EB5B21
:10415000FF4F608171818281938120E030E04AE7E6
:1041600054E40E941903DC01CB018CAF9DAFAEAFCC
:10417000BFAF6CAD7DAD8EAD9FAD20E030E04AE7C6
:1041800055E40E941F02DC01CB0188AF99AFAAAFB2
:10419000BBAF68AD79AD8AAD9BAD20E030E040E8C3
:1041A0005FE30E94250488232CF481E090E09FAB1C
:1041B0008EAB3FC068AD79AD8AAD9BAD20E03FEFDF
:1041C0004FE757E40E94C50318164CF56CAD7DAD62
:1041D0008EAD9FAD20E030E040E251E40E941F022E
:1041E000DC01CB01BC01CD010E944900DC01CB0107
:1041F0009FAB8EAB0FC080E991E09DAB8CAB8CA9DF
:104200009DA90197F1F79DAB8CAB8EA99FA9019752
:104210009FAB8EAB8EA99FA9009769F7BFC168AD10
:1042200079AD8AAD9BAD0E944900DC01CB019FAB0B
:104230008EAB8EA99FA99BAB8AAB8AA99BA901973C
:10424000F1F79BAB8AABAAC1FE01EF5BFF4F608128
:104250007181828193810E944900DC01CB01FE01C2
:10426000E05CFF4F8083FE01E05CFF4F808189AB03
:1042700089A98A95F1F789AB91C1FE01E558FF4FF5
:1042800080818C3309F0C2C084ED0E94E11680E089
:1042900090E0A0E2B2E48DA79EA7AFA7B8AB6DA552
:1042A0007EA58FA598A92BEA3AEA4AEA50E40E9433
:1042B0001F02DC01CB0189A79AA7ABA7BCA769A500
:1042C0007AA58BA59CA520E030E040E85FE30E9442
:1042D000250488231CF481E088A791C069A57AA5EC
:1042E0008BA59CA520E030E04FE753E40E94C50376
:1042F00018160CF07BC06DA57EA58FA598A920E0AF
:1043000030E04AE754E40E941903DC01CB018CA39E
:104310009DA3AEA3BFA36CA17DA18EA19FA120E010
:1043200030E04AE755E40E941F02DC01CB0188A37C
:1043300099A3AAA3BBA368A179A18AA19BA120E00C
:1043400030E040E85FE30E94250488232CF481E0FC
:1043500090E09F8F8E8F3FC068A179A18AA19BA119
:1043600020E03FEF4FE757E40E94C50318164CF5D5
:104370006CA17DA18EA19FA120E030E040E251E43C
:104380000E941F02DC01CB01BC01CD010E9449004B
:10439000DC01CB019F8F8E8F0FC080E991E09D8F54
:1043A0008C8F8C8D9D8D0197F1F79D8F8C8F8E8DCD
:1043B0009F8D01979F8F8E8F8E8D9F8D009769F7B0
:1043C000EDC068A179A18AA19BA10E944900DC01EE
:1043D000CB019F8F8E8F8E8D9F8D9B8F8A8F8A8D25
:1043E0009B8D0197F1F79B8F8A8FD8C069A57AA51D
:1043F0008BA59CA50E944900DC01CB0188A788A55C
:10440000898F898D8A95F1F7898FC8C0FE01E5589B
:10441000FF4F8081803509F0C1C080E80E94E1161D
:1044200080E090E0A0E2B2E48D8B9E8BAF8BB88FE2
:104430006D897E898F89988D2BEA3AEA4AEA50E4A1
:104440000E941F02DC01CB01898B9A8BAB8BBC8B4A
:1044500069897A898B899C8920E030E040E85FE3B4
:104460000E94250488231CF481E0888B91C069890F
:104470007A898B899C8920E030E04FE753E40E94E1
:10448000C50318160CF07BC06D897E898F89988DC5
:1044900020E030E04AE754E40E941903DC01CB013C
:1044A0008C879D87AE87BF876C857D858E859F8530
:1044B00020E030E04AE755E40E941F02DC01CB0116
:1044C00088879987AA87BB87688579858A859B8530
:1044D00020E030E040E85FE30E94250488232CF4CC
:1044E00081E090E09F838E833FC0688579858A85CF
:1044F0009B8520E03FEF4FE757E40E94C503181665
:104500004CF56C857D858E859F8520E030E040E20E
:1045100051E40E941F02DC01CB01BC01CD010E94CD
:104520004900DC01CB019F838E830FC080E991E0BD
:104530009D838C838C819D810197F1F79D838C8372
:104540008E819F8101979F838E838E819F810097AB
:1045500069F724C0688579858A859B850E94490012
:10456000DC01CB019F838E838E819F819B838A8315
:104570008A819B810197F1F79B838A830FC06989A8
:104580007A898B899C890E944900DC01CB01888B48
:104590008889898389818A95F1F78983FE01E758A3
:1045A000FF4F0190F081E02D8081882309F02CCC11
:1045B000C158DF4F0FB6F894DEBF0FBECDBFCF910D
:1045C000DF911F910F9108950F931F93DF93CF9366
:1045D000CDB7DEB7C855D0400FB6F894DEBF0FBEDA
:1045E000CDBFFE01ED5AFF4F6083718382839383B9
:1045F000FE01E95AFF4F4083FE01E85AFF4F208336
:10460000FE01EE5AFF4F1082FE01ED5AFF4F8081EE
:104610009181A281B38124EA31E0BC01CD01A901DD
:104620000E943116FE01E35BFF4F80E090E0A0E2C4
:10463000B2E480839183A283B3838E01075B1F4F13
:10464000FE01E35BFF4F60817181828193812BEAE0
:104650003AEA4AEA50E40E941F02DC01CB01F80169
:1046600080839183A283B383FE01E75BFF4F608168
:1046700071818281938120E030E040E85FE30E9415
:104680002504882334F4FE01E85BFF4F81E080833A
:10469000B4C0FE01E75BFF4F60817181828193812D
:1046A00020E030E04FE753E40E94C50318160CF0F9
:1046B00094C0FE01E35BFF4F608171818281938131
:1046C00020E030E04AE754E40E941903DC01CB010A
:1046D000FE01EC5BFF4F80839183A283B3838E0145
:1046E000005C1F4FFE01EC5BFF4F60817181828196
:1046F000938120E030E04AE755E40E941F02DC018C
:10470000CB01F80180839183A283B383FE01E05C37
:10471000FF4F608171818281938120E030E040E829
:104720005FE30E94250488232CF481E090E09FAF92
:104730008EAF48C0FE01E05CFF4F608171818281D5
:10474000938120E03FEF4FE757E40E94C50318161E
:1047500064F5FE01EC5BFF4F608171818281938182
:1047600020E030E040E251E40E941F02DC01CB0176
:10477000BC01CD010E944900DC01CB019FAF8EAF8F
:104780000FC080E991E09DAF8CAF8CAD9DAD0197DE
:10479000F1F79DAF8CAF8EAD9FAD01979FAF8EAF00
:1047A0008EAD9FAD009769F731C0FE01E05CFF4F11
:1047B00060817181828193810E944900DC01CB017B
:1047C0009FAF8EAF8EAD9FAD9BAF8AAF8AAD9BADD5
:1047D0000197F1F79BAF8AAF19C08E01085B1F4F9D
:1047E000FE01E75BFF4F60817181828193810E94AE
:1047F0004900DC01CB01F8018083FE01E85BFF4F3B
:10480000808189AF89AD8A95F1F789AFFE01E85AB9
:10481000FF4F8081853130F5FE01E95AFF4F8081DD
:10482000882F90E09C01220F331F220F331FC901F4
:10483000880F991F880F991F820F931F982FDE01F1
:10484000AE5ABF4FFE01E85AFF4F8081890F8C930B
:10485000FE01E95AFF4FDE01A85ABF4F80816C91DB
:104860000E94B61B8091C401882309F423C2809161
:10487000C4018150FE01EF5AFF4F808313C2FE0135
:10488000EF5AFF4F8081992787FD9095FC01EC55E9
:10489000FE4F8081805D0E94F71BDE01AE5ABF4F44
:1048A000FE01EE5AFF4F80818F5F8C93FE01EE5A1E
:1048B000FF4F8081843109F076C080E80E94E116C4
:1048C00080E090E0A0E2B2E48DAB9EABAFABB8AFBE
:1048D0006DA97EA98FA998AD20E030E04AE755E4A4
:1048E0000E941F02DC01CB0189AB9AABABABBCAB26
:1048F00069A97AA98BA99CA920E030E040E85FE390
:104900000E94250488232CF481E090E098AB8FA7C7
:104910003FC069A97AA98BA99CA920E03FEF4FE786
:1049200057E40E94C50318164CF56DA97EA98FA9FE
:1049300098AD20E030E040E251E40E941F02DC012B
:10494000CB01BC01CD010E944900DC01CB0198AB39
:104950008FA70FC080E991E09EA78DA78DA59EA58A
:104960000197F1F79EA78DA78FA598A9019798ABFE
:104970008FA78FA598A9009769F78BC169A97AA914
:104980008BA99CA90E944900DC01CB0198AB8FA7A1
:104990008FA598A99CA78BA78BA59CA50197F1F73C
:1049A0009CA78BA776C1FE01EE5AFF4F808188320B
:1049B00009F076C080EC0E94E11680E090E0A0E271
:1049C000B2E48FA398A7A9A7BAA76FA178A589A5D4
:1049D0009AA520E030E04AE755E40E941F02DC017E
:1049E000CB018BA39CA3ADA3BEA36BA17CA18DA186
:1049F0009EA120E030E040E85FE30E942504882388
:104A00002CF481E090E09AA389A33FC06BA17CA124
:104A10008DA19EA120E03FEF4FE757E40E94C50320
:104A200018164CF56FA178A589A59AA520E030E06D
:104A300040E251E40E941F02DC01CB01BC01CD0128
:104A40000E944900DC01CB019AA389A30FC080E931
:104A500091E098A38F8F8F8D98A10197F1F798A37C
:104A60008F8F89A19AA101979AA389A389A19AA15D
:104A7000009769F70EC16BA17CA18DA19EA10E9438
:104A80004900DC01CB019AA389A389A19AA19E8F39
:104A90008D8F8D8D9E8D0197F1F79E8F8D8FF9C033
:104AA000FE01EE5AFF4F80818C3309F076C084E915
:104AB0000E94E11680E090E0A0E2B2E4898F9A8F34
:104AC000AB8FBC8F698D7A8D8B8D9C8D20E030E013
:104AD0004AE755E40E941F02DC01CB018D8B9E8BBF
:104AE000AF8BB88F6D897E898F89988D20E030E0FB
:104AF00040E85FE30E94250488232CF481E090E0E5
:104B00009C8B8B8B3FC06D897E898F89988D20E02F
:104B10003FEF4FE757E40E94C50318164CF5698D27
:104B20007A8D8B8D9C8D20E030E040E251E40E9434
:104B30001F02DC01CB01BC01CD010E944900DC0158
:104B4000CB019C8B8B8B0FC080E991E09A8B898B7A
:104B500089899A890197F1F79A8B898B8B899C892E
:104B600001979C8B8B8B8B899C89009769F791C0EF
:104B70006D897E898F89988D0E944900DC01CB0167
:104B80009C8B8B8B8B899C89988B8F878F85988941
:104B90000197F1F7988B8F877CC0FE01EE5AFF4F8B
:104BA0008081803509F075C080E80E94E11680E0C0
:104BB00090E0A0E2B2E48B879C87AD87BE876B85CF
:104BC0007C858D859E8520E030E04AE755E40E9493
:104BD0001F02DC01CB018F839887A987BA876F8179
:104BE000788589859A8520E030E040E85FE30E947F
:104BF000250488232CF481E090E09E838D833FC0C0
:104C00006F81788589859A8520E03FEF4FE757E4EB
:104C10000E94C50318164CF56B857C858D859E8595
:104C200020E030E040E251E40E941F02DC01CB01B1
:104C3000BC01CD010E944900DC01CB019E838D8324
:104C40000FC080E991E09C838B838B819C810197CD
:104C5000F1F79C838B838D819E8101979E838D8349
:104C60008D819E81009769F714C06F817885898551
:104C70009A850E944900DC01CB019E838D838D8142
:104C80009E819A83898389819A810197F1F79A831A
:104C90008983DE01AF5ABF4FFE01EF5AFF4F80817B
:104CA00081508C93FE01EF5AFF4F808188230CF0D6
:104CB000E6CD03C080E30E94F71B1092C401C85ADE
:104CC000DF4F0FB6F894DEBF0FBECDBFCF91DF919F
:104CD0001F910F910895DF93CF9300D000D0CDB7EF
:104CE000DEB79B838A836C838C81882F90E0089643
:104CF000880F991F880F991F880F991F0E94E1162E
:104D000019820EC08981282F30E08A819B81FC01A5
:104D1000E20FF31F80810E94F71B89818F5F8983D7
:104D20008981883078F30F900F900F900F90CF917A
:104D3000DF910895DF93CF9300D000D00F92CDB7CD
:104D4000DEB79A8389836B834C832D8389819A8113
:104D50006B810E946B268C816D810E94B61B8B81BA
:104D60000E94F71B80E80E94E1160F900F900F90B1
:104D70000F900F90CF91DF910895DF93CF93CDB730
:104D8000DEB7A2970FB6F894DEBF0FBECDBF6E8B15
:104D90007F8B888F998F81E090E0A0E0B0E08E87D4
:104DA0009F87A88BB98B1C8683E08F831E821D8210
:104DB0001C866E897F89888D998D20E030E040E0E7
:104DC00050E00E942504882314F481E08C878C85B0
:104DD000882349F020E030E040E85FEB2E8F3F8FE2
:104DE00048A359A308C080E090E0A0E8BFE38E8FFD
:104DF0009F8FA8A3B9A36E897F89888D998D2E8DE9
:104E00003F8D48A159A10E941F02DC01CB018E8B6E
:104E10009F8BA88FB98F6E897F89888D998D0E940D
:104E2000B304DC01CB018A8B9B8BAC8BBD8B6A8975
:104E30007B898C899D890E9455049B01AC016E89F8
:104E40007F89888D998D0E94C101DC01CB018E8BF9
:104E50009F8BA88FB98F10C06E897F89888D998D9F
:104E600020E030E040E251E40E941F02DC01CB016F
:104E70008E8B9F8BA88FB98F9F819AA3AAA1AA23FB
:104E800011F0B1E0BAA38AA19F8191509F8388233A
:104E900019F76E897F89888D998D0E944900DC0100
:104EA000CB0188879987AA87BB876E897F89888D80
:104EB000998D0E94B304DC01CB01BC01CD010E949D
:104EC00055049B01AC016E897F89888D998D0E9464
:104ED000C101DC01CB018E8B9F8BA88FB98F6E89AE
:104EE0007F89888D998D20E030E040E251E40E9476
:104EF0001F02DC01CB018E8B9F8BA88FB98F6E892F
:104F00007F89888D998D0E944900DC01CB018E83B9
:104F10001A8E1B8E1C8E1D8E8E81853040F021E0F6
:104F200030E040E050E02A8F3B8F4C8F5D8F8885CA
:104F30009985AA85BB852A8D3B8D4C8D5D8D820F11
:104F4000931FA41FB51F88879987AA87BB878C8565
:104F5000882331F08DE20E94F71B8D818F5F8D8356
:104F60008A899B89AC89BD890097A105B10509F0A3
:104F700047C080E30E94F71B8D818F5F8D8340C007
:104F80008E859F85A889B9892AE030E040E050E00D
:104F9000BC01CD010E94A133DC01CB018E879F872C
:104FA000A88BB98B8A899B89AC89BD892AE030E0BE
:104FB00040E050E0BC01CD010E94F633DC01CB01A2
:104FC0009C01AD018E859F85A889B989820F931FA9
:104FD000A41FB51F8E879F87A88BB98B8A899B8951
:104FE000AC89BD892AE030E040E050E0BC01CD0151
:104FF0000E94F633DA01C9018A8B9B8BAC8BBD8B87
:105000008A899B89AC89BD890097A105B10509F002
:10501000B7CF28C08E859F85A889B9892AE030E05E
:1050200040E050E0BC01CD010E94F633DC01CB0131
:10503000805D8D878D850E94F71B8D818F5F8D83AD
:105040008E859F85A889B9892AE030E040E050E04C
:10505000BC01CD010E94F633DA01C9018E879F871A
:10506000A88BB98B8E859F85A889B98981309105D8
:10507000A105B10579F688859985AA85BB85009734
:10508000A105B10509F485C019821A821B821C8210
:1050900040C089819A81AB81BC812AE030E040E048
:1050A00050E0BC01CD010E94A133DC01CB0189831A
:1050B0009A83AB83BC8388859985AA85BB852AE0C2
:1050C00030E040E050E0BC01CD010E94D433DC016F
:1050D000CB019C01AD0189819A81AB81BC81820F9A
:1050E000931FA41FB51F89839A83AB83BC838885D4
:1050F0009985AA85BB852AE030E040E050E0BC01FC
:10510000CD010E94D433DA01C90188879987AA8723
:10511000BB8788859985AA85BB850097A105B105C0
:1051200009F0B7CF8EE20E94F71B8D818F5F8D83D0
:1051300028C089819A81AB81BC812AE030E040E0BF
:1051400050E0BC01CD010E94D433DC01CB01805D75
:105150008D878D850E94F71B8D818F5F8D8389815F
:105160009A81AB81BC812AE030E040E050E0BC0194
:10517000CD010E94D433DA01C90189839A83AB83BC
:10518000BC8389819A81AB81BC810097A105B1055F
:1051900081F68D81A2960FB6F894DEBF0FBECDBF0B
:1051A000CF91DF910895DF93CF9300D0CDB7DEB7D5
:1051B00089836A83AFE4B0E0EFE4F0E080818E7F22
:1051C0008C93AFE4B0E0EFE4F0E0808182608C93F8
:1051D000AEE4B0E0EEE4F0E0808188608C93AEE471
:1051E000B0E0EEE4F0E0808180618C938A818130D0
:1051F00071F4AFE4B0E0EFE4F0E080818F7B8C935A
:10520000AFE4B0E0EFE4F0E0808180688C938A81C5
:10521000823071F4AFE4B0E0EFE4F0E080818F7DA4
:105220008C93AFE4B0E0EFE4F0E0808180618C9398
:10523000E6E4F0E080E29EE491838083AEE4B0E0B7
:10524000EEE4F0E080818E7F8C93AEE4B0E0EEE49B
:10525000F0E0808182608C93AEE4B0E0EEE4F0E0B8
:1052600080818B7F8C930F900F90CF91DF91089569
:10527000DF93CF9300D00F92CDB7DEB789836A83D7
:105280004B838A81813089F4EAE4F0E08981282F18
:1052900030E088EC90E0AC01249FC001259F900D88
:1052A000349F900D1124918380838A81823089F408
:1052B000E8E4F0E08981282F30E088EC90E0AC0150
:1052C000249FC001259F900D349F900D1124918340
:1052D00080830F900F900F90CF91DF910895DF930F
:1052E000CF9300D000D0CDB7DEB79A8389836B838C
:1052F0004C838B81813031F4EAE4F0E089819A813A
:10530000918380838B81823031F4E8E4F0E08981FD
:105310009A81918380830F900F900F900F90CF917F
:10532000DF910895DF93CF93CDB7DEB781E064E0DE
:1053300040E00E94940881E065E041E00E9494080A
:1053400081E066E040E00E94940881E067E041E08F
:105350000E94940881E064E041E00E94980980E0A6
:1053600066E041E00E94940880E066E041E00E942F
:10537000980980E067E041E00E94940880E067E0DF
:1053800041E00E949809EDE2F0E080818061808335
:10539000EDE2F0E0808180648083EDE2F0E08081E6
:1053A0008C7F8083AEE2B0E0EEE2F0E080818E7F21
:1053B0008C93EDE2F0E0808180628083EDE2F0E0AA
:1053C0008081877F8083EDE2F0E080818B7F808326
:1053D000CF91DF910895DF93CF93CDB7DEB781E012
:1053E00064E040E00E94940881E065E040E00E94B3
:1053F000940881E066E041E00E94940881E067E063
:1054000040E00E949408EDE2F0E080818F7E80838E
:10541000EDE2F0E0808180688083EDE2F0E0808161
:1054200080648083EDE2F0E080818C7F8083AEE257
:10543000B0E0EEE2F0E080818E7F8C93EDE2F0E070
:10544000808180628083EDE2F0E08081877F8083CD
:10545000EDE2F0E080818B7F8083CF91DF91089532
:10546000DF93CF930F92CDB7DEB78983EFE2F0E001
:1054700089818083EEE2F0E080818823DCF7EFE22F
:10548000F0E080810F90CF91DF910895DF93CF936B
:10549000CDB7DEB7EEE2F0E080818823DCF7EFE203
:1054A000F0E08081CF91DF910895DF93CF9300D01A
:1054B000CDB7DEB79A83898389819A819093C6019B
:1054C0008093C5010F900F90CF91DF9108951F92A7
:1054D0000F920FB60F9211248F93AF93BF93EF9358
:1054E000FF93DF93CF93CDB7DEB7EFE2F0E0A0916B
:1054F000C501B091C6018C918083CF91DF91FF915E
:10550000EF91BF91AF918F910F900FBE0F901F90B1
:105510001895DF93CF9300D000D00F92CDB7DEB7B0
:105520008B837D836C838C819D819C01220F331F33
:10553000C901880F991F880F991F820F931F8251ED
:105540009D4F9A83898389819A816B8144E00E946F
:105550006F2984E06B810E94D3280F900F900F90E9
:105560000F900F90CF91DF910895DF93CF93CDB738
:10557000DEB781E060E041E00E94940881E061E0F4
:1055800041E00E94940881E062E041E00E949408BA
:1055900081E064E041E00E94940881E066E041E03F
:1055A0000E94940881E065E041E00E94940880E058
:1055B00062E041E00E94940880E063E041E00E94E4
:1055C0009408CF91DF910895DF93CF93CDB7DEB7E5
:1055D00081E066E041E00E949809CF91DF91089553
:1055E000DF93CF93CDB7DEB781E065E041E00E9465
:1055F0009809CF91DF910895DF93CF93CDB7DEB7B0
:1056000080E062E041E00E949809CF91DF91089527
:10561000DF93CF93CDB7DEB780E063E041E00E9437
:105620009809CF91DF910895DF93CF93CDB7DEB77F
:1056300081E066E040E00E949809CF91DF910895F3
:10564000DF93CF93CDB7DEB781E065E040E00E9405
:105650009809CF91DF910895DF93CF93CDB7DEB74F
:1056600080E062E040E00E949809CF91DF910895C8
:10567000DF93CF93CDB7DEB780E063E040E00E94D8
:105680009809CF91DF910895DF93CF930F92CDB713
:10569000DEB7898389818A3030F58981982F9170AE
:1056A00081E060E0492F0E94980989818695982FB2
:1056B000917081E061E0492F0E9498098981869567
:1056C0008695982F917081E062E0492F0E94980999
:1056D0008981869586958695982F917081E064E002
:1056E000492F0E9498090F90CF91DF910895DF9381
:1056F000CF9300D0CDB7DEB79A838983A3E5B0E01E
:10570000E3E5F0E0808188608C93A3E5B0E0E3E519
:10571000F0E080818F7B8C93ECE5F0E08DE7808377
:1057200089819A819093C8018093C701A9E5B0E06F
:10573000E9E5F0E0808182608C930E941516A3E574
:10574000B0E0E3E5F0E080818B7F8C93A3E5B0E0EF
:10575000E3E5F0E0808182608C93A3E5B0E0E3E5CF
:10576000F0E0808181608C930F900F90CF91DF915A
:105770000895DF93CF93CDB7DEB7A3E5B0E0E3E5BF
:10578000F0E0808188608C93A3E5B0E0E3E5F0E091
:10579000808180648C93A3E5B0E0E3E5F0E0808154
:1057A0008F7E8C93A3E5B0E0E3E5F0E0808180623A
:1057B0008C93A9E5B0E0E9E5F0E080818D7F8C93E2
:1057C000A3E5B0E0E3E5F0E080818B7F8C93A3E577
:1057D000B0E0E3E5F0E0808182608C93A3E5B0E087
:1057E000E3E5F0E080818E7F8C93CF91DF91089587
:1057F000DF93CF930F92CDB7DEB78983ECE5F0E06E
:10580000898180830F90CF91DF9108951F920F922D
:105810000FB60F9211242F933F934F935F936F9383
:105820007F938F939F93AF93BF93EF93FF93DF93F8
:10583000CF93CDB7DEB78091C7019091C801009793
:1058400029F0E091C701F091C8010995CF91DF914E
:10585000FF91EF91BF91AF919F918F917F916F9148
:105860005F914F913F912F910F900FBE0F901F901E
:105870001895DF93CF93CDB7DEB7E6E4F0E080E292
:105880009EE491838083AFE4B0E0EFE4F0E08081B8
:105890008E7F8C93AFE4B0E0EFE4F0E08081826033
:1058A0008C93AEE4B0E0EEE4F0E0808188608C930D
:1058B000AEE4B0E0EEE4F0E0808180618C93AFE490
:1058C000B0E0EFE4F0E080818F7B8C93AFE4B0E058
:1058D000EFE4F0E0808180688C93AEE4B0E0EEE429
:1058E000F0E080818E7F8C93AEE4B0E0EEE4F0E0F7
:1058F000808182608C93AEE4B0E0EEE4F0E08081E1
:105900008B7F8C93CF91DF910895DF93CF9300D05D
:10591000CDB7DEB79A838983EAE4F0E089819A8182
:10592000918380830F900F90CF91DF9108951F9204
:105930000F920FB60F9211242F933F934F935F93C3
:105940006F937F938F939F93AF93BF93EF93FF9347
:10595000DF93CF93CDB7DEB78091C9019091CA0193
:10596000009769F0A091CF01B091D001ECE2F0E096
:1059700080818C93E091C901F091CA010995CF9182
:10598000DF91FF91EF91BF91AF919F918F917F91A7
:105990006F915F914F913F912F910F900FBE0F909C
:1059A0001F9018951F920F920FB60F9211242F93EC
:1059B0003F934F935F936F937F938F939F93AF9397
:1059C000BF93EF93FF93DF93CF93CDB7DEB7809173
:1059D000CB019091CC01009729F0E091CB01F0919F
:1059E000CC010995CF91DF91FF91EF91BF91AF91DC
:1059F0009F918F917F916F915F914F913F912F91E7
:105A00000F900FBE0F901F9018951F920F920FB618
:105A10000F9211242F933F934F935F936F937F9334
:105A20008F939F93AF93BF93EF93FF93DF93CF93A6
:105A3000CDB7DEB78091CD019091CE01009729F0CE
:105A4000E091CD01F091CE010995CF91DF91FF91C9
:105A5000EF91BF91AF919F918F917F916F915F91E6
:105A60004F913F912F910F900FBE0F901F9018955F
:105A7000DF93CF930F92CDB7DEB719828981826011
:105A80008983898184608983AAE2B0E0EAE2F0E058
:105A900080818B7F8C9389818F7E898389818F7DA3
:105AA0008983E9E2F0E087E68083AAE2B0E0EAE2F7
:105AB000F0E080818F778C93AAE2B0E0EAE2F0E038
:105AC00080818F7B8C93AAE2B0E0EAE2F0E08081F3
:105AD0008F7D8C938981877F898389818F7B89835F
